{
  "_format": "hh-sol-artifact-1",
  "contractName": "VStaking",
  "sourceName": "contracts/VStaking.sol",
  "abi": [
    {
      "inputs": [
        {
          "internalType": "address",
          "name": "_tokenAddress",
          "type": "address"
        },
        {
          "internalType": "uint256",
          "name": "_decimals",
          "type": "uint256"
        }
      ],
      "stateMutability": "nonpayable",
      "type": "constructor"
    },
    {
      "anonymous": false,
      "inputs": [
        {
          "indexed": true,
          "internalType": "address",
          "name": "previousOwner",
          "type": "address"
        },
        {
          "indexed": true,
          "internalType": "address",
          "name": "newOwner",
          "type": "address"
        }
      ],
      "name": "OwnershipTransferred",
      "type": "event"
    },
    {
      "inputs": [
        {
          "internalType": "uint256",
          "name": "index",
          "type": "uint256"
        }
      ],
      "name": "checkRewards",
      "outputs": [
        {
          "internalType": "uint256",
          "name": "",
          "type": "uint256"
        }
      ],
      "stateMutability": "view",
      "type": "function"
    },
    {
      "inputs": [
        {
          "internalType": "uint256",
          "name": "index",
          "type": "uint256"
        }
      ],
      "name": "claimRewards",
      "outputs": [],
      "stateMutability": "nonpayable",
      "type": "function"
    },
    {
      "inputs": [],
      "name": "decimals",
      "outputs": [
        {
          "internalType": "uint256",
          "name": "",
          "type": "uint256"
        }
      ],
      "stateMutability": "view",
      "type": "function"
    },
    {
      "inputs": [
        {
          "internalType": "uint256",
          "name": "duration",
          "type": "uint256"
        }
      ],
      "name": "getRate",
      "outputs": [
        {
          "internalType": "uint256",
          "name": "",
          "type": "uint256"
        }
      ],
      "stateMutability": "view",
      "type": "function"
    },
    {
      "inputs": [
        {
          "internalType": "uint256",
          "name": "amount",
          "type": "uint256"
        },
        {
          "internalType": "uint256",
          "name": "lockDuration",
          "type": "uint256"
        }
      ],
      "name": "getStake",
      "outputs": [
        {
          "internalType": "uint256",
          "name": "",
          "type": "uint256"
        }
      ],
      "stateMutability": "view",
      "type": "function"
    },
    {
      "inputs": [
        {
          "internalType": "address",
          "name": "account",
          "type": "address"
        }
      ],
      "name": "getStakedBalance",
      "outputs": [
        {
          "internalType": "uint256",
          "name": "",
          "type": "uint256"
        }
      ],
      "stateMutability": "view",
      "type": "function"
    },
    {
      "inputs": [
        {
          "internalType": "address",
          "name": "account",
          "type": "address"
        }
      ],
      "name": "getStakingHistory",
      "outputs": [
        {
          "components": [
            {
              "internalType": "uint256",
              "name": "timestamp",
              "type": "uint256"
            },
            {
              "internalType": "uint256",
              "name": "amount",
              "type": "uint256"
            },
            {
              "internalType": "uint256",
              "name": "rate",
              "type": "uint256"
            },
            {
              "internalType": "uint256",
              "name": "lockDuration",
              "type": "uint256"
            },
            {
              "internalType": "uint256",
              "name": "lockTime",
              "type": "uint256"
            },
            {
              "internalType": "uint256",
              "name": "claimedRewards",
              "type": "uint256"
            },
            {
              "internalType": "enum VStaking.StakingStatus",
              "name": "status",
              "type": "uint8"
            }
          ],
          "internalType": "struct VStaking.StakingRecord[]",
          "name": "",
          "type": "tuple[]"
        }
      ],
      "stateMutability": "view",
      "type": "function"
    },
    {
      "inputs": [],
      "name": "getTotalStakedBalance",
      "outputs": [
        {
          "internalType": "uint256",
          "name": "",
          "type": "uint256"
        }
      ],
      "stateMutability": "view",
      "type": "function"
    },
    {
      "inputs": [],
      "name": "owner",
      "outputs": [
        {
          "internalType": "address",
          "name": "",
          "type": "address"
        }
      ],
      "stateMutability": "view",
      "type": "function"
    },
    {
      "inputs": [
        {
          "internalType": "uint256",
          "name": "",
          "type": "uint256"
        }
      ],
      "name": "ratesByDuration",
      "outputs": [
        {
          "internalType": "uint256",
          "name": "",
          "type": "uint256"
        }
      ],
      "stateMutability": "view",
      "type": "function"
    },
    {
      "inputs": [],
      "name": "renounceOwnership",
      "outputs": [],
      "stateMutability": "nonpayable",
      "type": "function"
    },
    {
      "inputs": [
        {
          "internalType": "uint256",
          "name": "amount",
          "type": "uint256"
        },
        {
          "internalType": "uint256",
          "name": "lockDuration",
          "type": "uint256"
        }
      ],
      "name": "stake",
      "outputs": [],
      "stateMutability": "nonpayable",
      "type": "function"
    },
    {
      "inputs": [
        {
          "internalType": "address",
          "name": "",
          "type": "address"
        }
      ],
      "name": "stakingBalanceHistory",
      "outputs": [
        {
          "internalType": "uint256",
          "name": "",
          "type": "uint256"
        }
      ],
      "stateMutability": "view",
      "type": "function"
    },
    {
      "inputs": [
        {
          "internalType": "address",
          "name": "",
          "type": "address"
        },
        {
          "internalType": "uint256",
          "name": "",
          "type": "uint256"
        }
      ],
      "name": "stakingHistory",
      "outputs": [
        {
          "internalType": "uint256",
          "name": "timestamp",
          "type": "uint256"
        },
        {
          "internalType": "uint256",
          "name": "amount",
          "type": "uint256"
        },
        {
          "internalType": "uint256",
          "name": "rate",
          "type": "uint256"
        },
        {
          "internalType": "uint256",
          "name": "lockDuration",
          "type": "uint256"
        },
        {
          "internalType": "uint256",
          "name": "lockTime",
          "type": "uint256"
        },
        {
          "internalType": "uint256",
          "name": "claimedRewards",
          "type": "uint256"
        },
        {
          "internalType": "enum VStaking.StakingStatus",
          "name": "status",
          "type": "uint8"
        }
      ],
      "stateMutability": "view",
      "type": "function"
    },
    {
      "inputs": [],
      "name": "token",
      "outputs": [
        {
          "internalType": "contract IERC20",
          "name": "",
          "type": "address"
        }
      ],
      "stateMutability": "view",
      "type": "function"
    },
    {
      "inputs": [],
      "name": "totalStakedBalance",
      "outputs": [
        {
          "internalType": "uint256",
          "name": "",
          "type": "uint256"
        }
      ],
      "stateMutability": "view",
      "type": "function"
    },
    {
      "inputs": [
        {
          "internalType": "address",
          "name": "newOwner",
          "type": "address"
        }
      ],
      "name": "transferOwnership",
      "outputs": [],
      "stateMutability": "nonpayable",
      "type": "function"
    },
    {
      "inputs": [
        {
          "internalType": "uint256",
          "name": "index",
          "type": "uint256"
        }
      ],
      "name": "unstake",
      "outputs": [],
      "stateMutability": "nonpayable",
      "type": "function"
    },
    {
      "inputs": [
        {
          "internalType": "uint256",
          "name": "duration",
          "type": "uint256"
        },
        {
          "internalType": "uint256",
          "name": "rate",
          "type": "uint256"
        }
      ],
      "name": "updateRate",
      "outputs": [],
      "stateMutability": "nonpayable",
      "type": "function"
    }
  ],
  "bytecode": "0x60806040523480156200001157600080fd5b506040516200285238038062002852833981810160405281019062000037919062000218565b620000576200004b620000a760201b60201c565b620000af60201b60201c565b81600460006101000a81548173ffffffffffffffffffffffffffffffffffffffff021916908373ffffffffffffffffffffffffffffffffffffffff1602179055508060058190555050506200025f565b600033905090565b60008060009054906101000a900473ffffffffffffffffffffffffffffffffffffffff169050816000806101000a81548173ffffffffffffffffffffffffffffffffffffffff021916908373ffffffffffffffffffffffffffffffffffffffff1602179055508173ffffffffffffffffffffffffffffffffffffffff168173ffffffffffffffffffffffffffffffffffffffff167f8be0079c531659141344cd1fd0a4f28419497f9722a3daafe3b4186f6b6457e060405160405180910390a35050565b600080fd5b600073ffffffffffffffffffffffffffffffffffffffff82169050919050565b6000620001a58262000178565b9050919050565b620001b78162000198565b8114620001c357600080fd5b50565b600081519050620001d781620001ac565b92915050565b6000819050919050565b620001f281620001dd565b8114620001fe57600080fd5b50565b6000815190506200021281620001e7565b92915050565b6000806040838503121562000232576200023162000173565b5b60006200024285828601620001c6565b9250506020620002558582860162000201565b9150509250929050565b6125e3806200026f6000396000f3fe608060405234801561001057600080fd5b50600436106101215760003560e01c806357764094116100ad5780638da5cb5b116100715780638da5cb5b14610332578063a0befa9414610350578063f2fde38b14610380578063fc0c546a1461039c578063fd8fd47f146103ba57610121565b8063577640941461027c5780635eae495c146102ac578063715018a6146102dc5780637b0472f0146102e65780637d9ef0bf1461030257610121565b80632e17de78116100f45780632e17de78146101c65780632e86e40a146101e2578063313ce567146102125780633a02a42d14610230578063405abb411461026057610121565b80630620eedc146101265780630962ef791461014457806310314ae5146101605780631b83bc4214610190575b600080fd5b61012e6103d8565b60405161013b9190611752565b60405180910390f35b61015e6004803603810190610159919061179e565b6103de565b005b61017a6004803603810190610175919061179e565b61072c565b6040516101879190611752565b60405180910390f35b6101aa60048036038101906101a59190611829565b6108b5565b6040516101bd97969594939291906118e0565b60405180910390f35b6101e060048036038101906101db919061179e565b610921565b005b6101fc60048036038101906101f7919061179e565b610d59565b6040516102099190611752565b60405180910390f35b61021a610d71565b6040516102279190611752565b60405180910390f35b61024a6004803603810190610245919061194f565b610d77565b6040516102579190611752565b60405180910390f35b61027a6004803603810190610275919061197c565b610dc0565b005b6102966004803603810190610291919061179e565b610eba565b6040516102a39190611752565b60405180910390f35b6102c660048036038101906102c1919061194f565b610ed7565b6040516102d39190611752565b60405180910390f35b6102e4610eef565b005b61030060048036038101906102fb919061197c565b610f03565b005b61031c6004803603810190610317919061194f565b611277565b6040516103299190611b17565b60405180910390f35b61033a61138c565b6040516103479190611b48565b60405180910390f35b61036a6004803603810190610365919061197c565b6113b5565b6040516103779190611752565b60405180910390f35b61039a6004803603810190610395919061194f565b61141b565b005b6103a461149e565b6040516103b19190611bc2565b60405180910390f35b6103c26114c4565b6040516103cf9190611752565b60405180910390f35b60065481565b600260003373ffffffffffffffffffffffffffffffffffffffff1673ffffffffffffffffffffffffffffffffffffffff168152602001908152602001600020805490508110610462576040517f08c379a000000000000000000000000000000000000000000000000000000000815260040161045990611c3a565b60405180910390fd5b6000600260003373ffffffffffffffffffffffffffffffffffffffff1673ffffffffffffffffffffffffffffffffffffffff16815260200190815260200160002082815481106104b5576104b4611c5a565b5b90600052602060002090600702019050600081600101541161050c576040517f08c379a000000000000000000000000000000000000000000000000000000000815260040161050390611cd5565b60405180910390fd5b60006105258260000154426114ce90919063ffffffff16565b9050600061053c83600101548460020154846114e4565b905082600501548111610584576040517f08c379a000000000000000000000000000000000000000000000000000000000815260040161057b90611d41565b60405180910390fd5b600061059d8460050154836114ce90919063ffffffff16565b9050600460009054906101000a900473ffffffffffffffffffffffffffffffffffffffff1673ffffffffffffffffffffffffffffffffffffffff1663a9059cbb33836040518363ffffffff1660e01b81526004016105fc929190611d61565b6020604051808303816000875af115801561061b573d6000803e3d6000fd5b505050506040513d601f19601f8201168201806040525081019061063f9190611dc2565b5081846005018190555083600260003373ffffffffffffffffffffffffffffffffffffffff1673ffffffffffffffffffffffffffffffffffffffff168152602001908152602001600020868154811061069b5761069a611c5a565b5b90600052602060002090600702016000820154816000015560018201548160010155600282015481600201556003820154816003015560048201548160040155600582015481600501556006820160009054906101000a900460ff168160060160006101000a81548160ff0219169083600381111561071d5761071c611869565b5b02179055509050505050505050565b6000600260003373ffffffffffffffffffffffffffffffffffffffff1673ffffffffffffffffffffffffffffffffffffffff1681526020019081526020016000208054905082106107b2576040517f08c379a00000000000000000000000000000000000000000000000000000000081526004016107a990611c3a565b60405180910390fd5b6000600260003373ffffffffffffffffffffffffffffffffffffffff1673ffffffffffffffffffffffffffffffffffffffff168152602001908152602001600020838154811061080557610804611c5a565b5b90600052602060002090600702019050600081600101541161085c576040517f08c379a000000000000000000000000000000000000000000000000000000000815260040161085390611cd5565b60405180910390fd5b60006108758260000154426114ce90919063ffffffff16565b9050600061088c83600101548460020154846114e4565b905060006108a78460050154836114ce90919063ffffffff16565b905080945050505050919050565b600260205281600052604060002081815481106108d157600080fd5b9060005260206000209060070201600091509150508060000154908060010154908060020154908060030154908060040154908060050154908060060160009054906101000a900460ff16905087565b600260003373ffffffffffffffffffffffffffffffffffffffff1673ffffffffffffffffffffffffffffffffffffffff1681526020019081526020016000208054905081106109a5576040517f08c379a000000000000000000000000000000000000000000000000000000000815260040161099c90611c3a565b60405180910390fd5b6000600260003373ffffffffffffffffffffffffffffffffffffffff1673ffffffffffffffffffffffffffffffffffffffff16815260200190815260200160002082815481106109f8576109f7611c5a565b5b906000526020600020906007020190506000816001015411610a4f576040517f08c379a0000000000000000000000000000000000000000000000000000000008152600401610a4690611cd5565b60405180910390fd5b8060040154421015610a96576040517f08c379a0000000000000000000000000000000000000000000000000000000008152600401610a8d90611e3b565b60405180910390fd5b610aaf81600101546006546114ce90919063ffffffff16565b600681905550610b0b8160010154600160003373ffffffffffffffffffffffffffffffffffffffff1673ffffffffffffffffffffffffffffffffffffffff168152602001908152602001600020546114ce90919063ffffffff16565b600160003373ffffffffffffffffffffffffffffffffffffffff1673ffffffffffffffffffffffffffffffffffffffff1681526020019081526020016000208190555060018160060160006101000a81548160ff02191690836003811115610b7657610b75611869565b5b02179055506000610b948260000154426114ce90919063ffffffff16565b90506000610bc1610bae84600101548560020154856114e4565b84600101546115ad90919063ffffffff16565b9050600460009054906101000a900473ffffffffffffffffffffffffffffffffffffffff1673ffffffffffffffffffffffffffffffffffffffff1663a9059cbb33836040518363ffffffff1660e01b8152600401610c20929190611d61565b6020604051808303816000875af1158015610c3f573d6000803e3d6000fd5b505050506040513d601f19601f82011682018060405250810190610c639190611dc2565b506000836001018190555080836005018190555082600260003373ffffffffffffffffffffffffffffffffffffffff1673ffffffffffffffffffffffffffffffffffffffff1681526020019081526020016000208581548110610cc957610cc8611c5a565b5b90600052602060002090600702016000820154816000015560018201548160010155600282015481600201556003820154816003015560048201548160040155600582015481600501556006820160009054906101000a900460ff168160060160006101000a81548160ff02191690836003811115610d4b57610d4a611869565b5b021790555090505050505050565b60036020528060005260406000206000915090505481565b60055481565b6000600160008373ffffffffffffffffffffffffffffffffffffffff1673ffffffffffffffffffffffffffffffffffffffff168152602001908152602001600020549050919050565b610dc86115c3565b60008211610e0b576040517f08c379a0000000000000000000000000000000000000000000000000000000008152600401610e0290611ea7565b60405180910390fd5b60008111610e4e576040517f08c379a0000000000000000000000000000000000000000000000000000000008152600401610e4590611f13565b60405180910390fd5b600554600a610e5d9190612095565b8110610e9e576040517f08c379a0000000000000000000000000000000000000000000000000000000008152600401610e959061212c565b60405180910390fd5b8060036000848152602001908152602001600020819055505050565b600060036000838152602001908152602001600020549050919050565b60016020528060005260406000206000915090505481565b610ef76115c3565b610f016000611641565b565b60008211610f46576040517f08c379a0000000000000000000000000000000000000000000000000000000008152600401610f3d90612198565b60405180910390fd5b60008111610f89576040517f08c379a0000000000000000000000000000000000000000000000000000000008152600401610f809061222a565b60405180910390fd5b60006003600083815260200190815260200160002054905060008111610fe4576040517f08c379a0000000000000000000000000000000000000000000000000000000008152600401610fdb906122bc565b60405180910390fd5b6000610ff983426115ad90919063ffffffff16565b9050600460009054906101000a900473ffffffffffffffffffffffffffffffffffffffff1673ffffffffffffffffffffffffffffffffffffffff166323b872dd3330876040518463ffffffff1660e01b815260040161105a939291906122dc565b6020604051808303816000875af1158015611079573d6000803e3d6000fd5b505050506040513d601f19601f8201168201806040525081019061109d9190611dc2565b5060006040518060e0016040528042815260200186815260200184815260200185815260200183815260200160008152602001600060038111156110e4576110e3611869565b5b8152509050600260003373ffffffffffffffffffffffffffffffffffffffff1673ffffffffffffffffffffffffffffffffffffffff168152602001908152602001600020819080600181540180825580915050600190039060005260206000209060070201600090919091909150600082015181600001556020820151816001015560408201518160020155606082015181600301556080820151816004015560a0820151816005015560c08201518160060160006101000a81548160ff021916908360038111156111b9576111b8611869565b5b021790555050506111d5856006546115ad90919063ffffffff16565b60068190555061122d85600160003373ffffffffffffffffffffffffffffffffffffffff1673ffffffffffffffffffffffffffffffffffffffff168152602001908152602001600020546115ad90919063ffffffff16565b600160003373ffffffffffffffffffffffffffffffffffffffff1673ffffffffffffffffffffffffffffffffffffffff168152602001908152602001600020819055505050505050565b6060600260008373ffffffffffffffffffffffffffffffffffffffff1673ffffffffffffffffffffffffffffffffffffffff168152602001908152602001600020805480602002602001604051908101604052809291908181526020016000905b8282101561138157838290600052602060002090600702016040518060e00160405290816000820154815260200160018201548152602001600282015481526020016003820154815260200160048201548152602001600582015481526020016006820160009054906101000a900460ff16600381111561135c5761135b611869565b5b600381111561136e5761136d611869565b5b81525050815260200190600101906112d8565b505050509050919050565b60008060009054906101000a900473ffffffffffffffffffffffffffffffffffffffff16905090565b6000806003600084815260200190815260200160002054905060008111611411576040517f08c379a0000000000000000000000000000000000000000000000000000000008152600401611408906122bc565b60405180910390fd5b8091505092915050565b6114236115c3565b600073ffffffffffffffffffffffffffffffffffffffff168173ffffffffffffffffffffffffffffffffffffffff1603611492576040517f08c379a000000000000000000000000000000000000000000000000000000000815260040161148990612385565b60405180910390fd5b61149b81611641565b50565b600460009054906101000a900473ffffffffffffffffffffffffffffffffffffffff1681565b6000600654905090565b600081836114dc91906123a5565b905092915050565b6000600554600a6114f59190612095565b831115611537576040517f08c379a000000000000000000000000000000000000000000000000000000000815260040161152e9061244b565b60405180910390fd5b60006115506301e133808561170590919063ffffffff16565b90506000611567828761171b90919063ffffffff16565b9050600061157e858361171b90919063ffffffff16565b90506115a1600554600a6115929190612095565b8261170590919063ffffffff16565b93505050509392505050565b600081836115bb919061246b565b905092915050565b6115cb611731565b73ffffffffffffffffffffffffffffffffffffffff166115e961138c565b73ffffffffffffffffffffffffffffffffffffffff161461163f576040517f08c379a0000000000000000000000000000000000000000000000000000000008152600401611636906124eb565b60405180910390fd5b565b60008060009054906101000a900473ffffffffffffffffffffffffffffffffffffffff169050816000806101000a81548173ffffffffffffffffffffffffffffffffffffffff021916908373ffffffffffffffffffffffffffffffffffffffff1602179055508173ffffffffffffffffffffffffffffffffffffffff168173ffffffffffffffffffffffffffffffffffffffff167f8be0079c531659141344cd1fd0a4f28419497f9722a3daafe3b4186f6b6457e060405160405180910390a35050565b60008183611713919061253a565b905092915050565b60008183611729919061256b565b905092915050565b600033905090565b6000819050919050565b61174c81611739565b82525050565b60006020820190506117676000830184611743565b92915050565b600080fd5b61177b81611739565b811461178657600080fd5b50565b60008135905061179881611772565b92915050565b6000602082840312156117b4576117b361176d565b5b60006117c284828501611789565b91505092915050565b600073ffffffffffffffffffffffffffffffffffffffff82169050919050565b60006117f6826117cb565b9050919050565b611806816117eb565b811461181157600080fd5b50565b600081359050611823816117fd565b92915050565b600080604083850312156118405761183f61176d565b5b600061184e85828601611814565b925050602061185f85828601611789565b9150509250929050565b7f4e487b7100000000000000000000000000000000000000000000000000000000600052602160045260246000fd5b600481106118a9576118a8611869565b5b50565b60008190506118ba82611898565b919050565b60006118ca826118ac565b9050919050565b6118da816118bf565b82525050565b600060e0820190506118f5600083018a611743565b6119026020830189611743565b61190f6040830188611743565b61191c6060830187611743565b6119296080830186611743565b61193660a0830185611743565b61194360c08301846118d1565b98975050505050505050565b6000602082840312156119655761196461176d565b5b600061197384828501611814565b91505092915050565b600080604083850312156119935761199261176d565b5b60006119a185828601611789565b92505060206119b285828601611789565b9150509250929050565b600081519050919050565b600082825260208201905092915050565b6000819050602082019050919050565b6119f181611739565b82525050565b611a00816118bf565b82525050565b60e082016000820151611a1c60008501826119e8565b506020820151611a2f60208501826119e8565b506040820151611a4260408501826119e8565b506060820151611a5560608501826119e8565b506080820151611a6860808501826119e8565b5060a0820151611a7b60a08501826119e8565b5060c0820151611a8e60c08501826119f7565b50505050565b6000611aa08383611a06565b60e08301905092915050565b6000602082019050919050565b6000611ac4826119bc565b611ace81856119c7565b9350611ad9836119d8565b8060005b83811015611b0a578151611af18882611a94565b9750611afc83611aac565b925050600181019050611add565b5085935050505092915050565b60006020820190508181036000830152611b318184611ab9565b905092915050565b611b42816117eb565b82525050565b6000602082019050611b5d6000830184611b39565b92915050565b6000819050919050565b6000611b88611b83611b7e846117cb565b611b63565b6117cb565b9050919050565b6000611b9a82611b6d565b9050919050565b6000611bac82611b8f565b9050919050565b611bbc81611ba1565b82525050565b6000602082019050611bd76000830184611bb3565b92915050565b600082825260208201905092915050565b7f496e76616c696420696e64657800000000000000000000000000000000000000600082015250565b6000611c24600d83611bdd565b9150611c2f82611bee565b602082019050919050565b60006020820190508181036000830152611c5381611c17565b9050919050565b7f4e487b7100000000000000000000000000000000000000000000000000000000600052603260045260246000fd5b7f4e6f207374616b656420616d6f756e7420746f20636c61696d00000000000000600082015250565b6000611cbf601983611bdd565b9150611cca82611c89565b602082019050919050565b60006020820190508181036000830152611cee81611cb2565b9050919050565b7f4e6f206e6577207265776172647320746f20636c61696d000000000000000000600082015250565b6000611d2b601783611bdd565b9150611d3682611cf5565b602082019050919050565b60006020820190508181036000830152611d5a81611d1e565b9050919050565b6000604082019050611d766000830185611b39565b611d836020830184611743565b9392505050565b60008115159050919050565b611d9f81611d8a565b8114611daa57600080fd5b50565b600081519050611dbc81611d96565b92915050565b600060208284031215611dd857611dd761176d565b5b6000611de684828501611dad565b91505092915050565b7f546f6b656e7320617265207374696c6c206c6f636b6564000000000000000000600082015250565b6000611e25601783611bdd565b9150611e3082611def565b602082019050919050565b60006020820190508181036000830152611e5481611e18565b9050919050565b7f4475726174696f6e206d7573742062652067726561746572207468616e203000600082015250565b6000611e91601f83611bdd565b9150611e9c82611e5b565b602082019050919050565b60006020820190508181036000830152611ec081611e84565b9050919050565b7f52617465206d7573742062652067726561746572207468616e20300000000000600082015250565b6000611efd601b83611bdd565b9150611f0882611ec7565b602082019050919050565b60006020820190508181036000830152611f2c81611ef0565b9050919050565b7f4e487b7100000000000000000000000000000000000000000000000000000000600052601160045260246000fd5b60008160011c9050919050565b6000808291508390505b6001851115611fb957808604811115611f9557611f94611f33565b5b6001851615611fa45780820291505b8081029050611fb285611f62565b9450611f79565b94509492505050565b600082611fd2576001905061208e565b81611fe0576000905061208e565b8160018114611ff657600281146120005761202f565b600191505061208e565b60ff84111561201257612011611f33565b5b8360020a91508482111561202957612028611f33565b5b5061208e565b5060208310610133831016604e8410600b84101617156120645782820a90508381111561205f5761205e611f33565b5b61208e565b6120718484846001611f6f565b9250905081840481111561208857612087611f33565b5b81810290505b9392505050565b60006120a082611739565b91506120ab83611739565b92506120d87fffffffffffffffffffffffffffffffffffffffffffffffffffffffffffffffff8484611fc2565b905092915050565b7f52617465206d757374206265206c657373207468616e20313030000000000000600082015250565b6000612116601a83611bdd565b9150612121826120e0565b602082019050919050565b6000602082019050818103600083015261214581612109565b9050919050565b7f416d6f756e74206d7573742062652067726561746572207468616e2030000000600082015250565b6000612182601d83611bdd565b915061218d8261214c565b602082019050919050565b600060208201905081810360008301526121b181612175565b9050919050565b7f4c6f636b206475726174696f6e206d757374206265206772656174657220746860008201527f616e203000000000000000000000000000000000000000000000000000000000602082015250565b6000612214602483611bdd565b915061221f826121b8565b604082019050919050565b6000602082019050818103600083015261224381612207565b9050919050565b7f5261746520666f722074686520676976656e206c6f636b206475726174696f6e60008201527f206973206e6f7420736574000000000000000000000000000000000000000000602082015250565b60006122a6602b83611bdd565b91506122b18261224a565b604082019050919050565b600060208201905081810360008301526122d581612299565b9050919050565b60006060820190506122f16000830186611b39565b6122fe6020830185611b39565b61230b6040830184611743565b949350505050565b7f4f776e61626c653a206e6577206f776e657220697320746865207a65726f206160008201527f6464726573730000000000000000000000000000000000000000000000000000602082015250565b600061236f602683611bdd565b915061237a82612313565b604082019050919050565b6000602082019050818103600083015261239e81612362565b9050919050565b60006123b082611739565b91506123bb83611739565b92508282039050818111156123d3576123d2611f33565b5b92915050565b7f50657263656e7461676520726174652073686f756c642062652062657477656560008201527f6e203020616e6420310000000000000000000000000000000000000000000000602082015250565b6000612435602983611bdd565b9150612440826123d9565b604082019050919050565b6000602082019050818103600083015261246481612428565b9050919050565b600061247682611739565b915061248183611739565b925082820190508082111561249957612498611f33565b5b92915050565b7f4f776e61626c653a2063616c6c6572206973206e6f7420746865206f776e6572600082015250565b60006124d5602083611bdd565b91506124e08261249f565b602082019050919050565b60006020820190508181036000830152612504816124c8565b9050919050565b7f4e487b7100000000000000000000000000000000000000000000000000000000600052601260045260246000fd5b600061254582611739565b915061255083611739565b9250826125605761255f61250b565b5b828204905092915050565b600061257682611739565b915061258183611739565b925082820261258f81611739565b915082820484148315176125a6576125a5611f33565b5b509291505056fea264697066735822122082630055b2758c9a7f7f1cb0c30fa5bb67cf09fccdd05116e50b988ac7fd06b364736f6c63430008130033",
  "linkReferences": {},
  "deployedLinkReferences": {}
}