{
  "_format": "hh-sol-artifact-1",
  "contractName": "VCoin",
  "sourceName": "contracts/VCoin.sol",
  "abi": [
    {
      "inputs": [
        {
          "internalType": "uint256",
          "name": "initialSupply",
          "type": "uint256"
        }
      ],
      "stateMutability": "nonpayable",
      "type": "constructor"
    },
    {
      "anonymous": false,
      "inputs": [
        {
          "indexed": true,
          "internalType": "address",
          "name": "owner",
          "type": "address"
        },
        {
          "indexed": true,
          "internalType": "address",
          "name": "spender",
          "type": "address"
        },
        {
          "indexed": false,
          "internalType": "uint256",
          "name": "value",
          "type": "uint256"
        }
      ],
      "name": "Approval",
      "type": "event"
    },
    {
      "anonymous": false,
      "inputs": [
        {
          "indexed": true,
          "internalType": "address",
          "name": "previousOwner",
          "type": "address"
        },
        {
          "indexed": true,
          "internalType": "address",
          "name": "newOwner",
          "type": "address"
        }
      ],
      "name": "OwnershipTransferred",
      "type": "event"
    },
    {
      "anonymous": false,
      "inputs": [
        {
          "indexed": true,
          "internalType": "address",
          "name": "from",
          "type": "address"
        },
        {
          "indexed": true,
          "internalType": "address",
          "name": "to",
          "type": "address"
        },
        {
          "indexed": false,
          "internalType": "uint256",
          "name": "value",
          "type": "uint256"
        }
      ],
      "name": "Transfer",
      "type": "event"
    },
    {
      "inputs": [
        {
          "internalType": "address",
          "name": "owner",
          "type": "address"
        },
        {
          "internalType": "address",
          "name": "spender",
          "type": "address"
        }
      ],
      "name": "allowance",
      "outputs": [
        {
          "internalType": "uint256",
          "name": "",
          "type": "uint256"
        }
      ],
      "stateMutability": "view",
      "type": "function"
    },
    {
      "inputs": [
        {
          "internalType": "address",
          "name": "spender",
          "type": "address"
        },
        {
          "internalType": "uint256",
          "name": "amount",
          "type": "uint256"
        }
      ],
      "name": "approve",
      "outputs": [
        {
          "internalType": "bool",
          "name": "",
          "type": "bool"
        }
      ],
      "stateMutability": "nonpayable",
      "type": "function"
    },
    {
      "inputs": [
        {
          "internalType": "address",
          "name": "account",
          "type": "address"
        }
      ],
      "name": "balanceOf",
      "outputs": [
        {
          "internalType": "uint256",
          "name": "",
          "type": "uint256"
        }
      ],
      "stateMutability": "view",
      "type": "function"
    },
    {
      "inputs": [
        {
          "internalType": "uint256",
          "name": "amount",
          "type": "uint256"
        }
      ],
      "name": "burn",
      "outputs": [],
      "stateMutability": "nonpayable",
      "type": "function"
    },
    {
      "inputs": [
        {
          "internalType": "address",
          "name": "account",
          "type": "address"
        },
        {
          "internalType": "uint256",
          "name": "amount",
          "type": "uint256"
        }
      ],
      "name": "burnFrom",
      "outputs": [],
      "stateMutability": "nonpayable",
      "type": "function"
    },
    {
      "inputs": [],
      "name": "decimals",
      "outputs": [
        {
          "internalType": "uint8",
          "name": "",
          "type": "uint8"
        }
      ],
      "stateMutability": "view",
      "type": "function"
    },
    {
      "inputs": [
        {
          "internalType": "address",
          "name": "spender",
          "type": "address"
        },
        {
          "internalType": "uint256",
          "name": "subtractedValue",
          "type": "uint256"
        }
      ],
      "name": "decreaseAllowance",
      "outputs": [
        {
          "internalType": "bool",
          "name": "",
          "type": "bool"
        }
      ],
      "stateMutability": "nonpayable",
      "type": "function"
    },
    {
      "inputs": [
        {
          "internalType": "address",
          "name": "spender",
          "type": "address"
        },
        {
          "internalType": "uint256",
          "name": "addedValue",
          "type": "uint256"
        }
      ],
      "name": "increaseAllowance",
      "outputs": [
        {
          "internalType": "bool",
          "name": "",
          "type": "bool"
        }
      ],
      "stateMutability": "nonpayable",
      "type": "function"
    },
    {
      "inputs": [],
      "name": "name",
      "outputs": [
        {
          "internalType": "string",
          "name": "",
          "type": "string"
        }
      ],
      "stateMutability": "view",
      "type": "function"
    },
    {
      "inputs": [],
      "name": "owner",
      "outputs": [
        {
          "internalType": "address",
          "name": "",
          "type": "address"
        }
      ],
      "stateMutability": "view",
      "type": "function"
    },
    {
      "inputs": [],
      "name": "renounceOwnership",
      "outputs": [],
      "stateMutability": "nonpayable",
      "type": "function"
    },
    {
      "inputs": [],
      "name": "symbol",
      "outputs": [
        {
          "internalType": "string",
          "name": "",
          "type": "string"
        }
      ],
      "stateMutability": "view",
      "type": "function"
    },
    {
      "inputs": [],
      "name": "totalSupply",
      "outputs": [
        {
          "internalType": "uint256",
          "name": "",
          "type": "uint256"
        }
      ],
      "stateMutability": "view",
      "type": "function"
    },
    {
      "inputs": [
        {
          "internalType": "address",
          "name": "to",
          "type": "address"
        },
        {
          "internalType": "uint256",
          "name": "amount",
          "type": "uint256"
        }
      ],
      "name": "transfer",
      "outputs": [
        {
          "internalType": "bool",
          "name": "",
          "type": "bool"
        }
      ],
      "stateMutability": "nonpayable",
      "type": "function"
    },
    {
      "inputs": [
        {
          "internalType": "address",
          "name": "from",
          "type": "address"
        },
        {
          "internalType": "address",
          "name": "to",
          "type": "address"
        },
        {
          "internalType": "uint256",
          "name": "amount",
          "type": "uint256"
        }
      ],
      "name": "transferFrom",
      "outputs": [
        {
          "internalType": "bool",
          "name": "",
          "type": "bool"
        }
      ],
      "stateMutability": "nonpayable",
      "type": "function"
    },
    {
      "inputs": [
        {
          "internalType": "address",
          "name": "newOwner",
          "type": "address"
        }
      ],
      "name": "transferOwnership",
      "outputs": [],
      "stateMutability": "nonpayable",
      "type": "function"
    }
  ],
  "bytecode": "0x60806040523480156200001157600080fd5b506040516200221c3803806200221c83398181016040528101906200003791906200039c565b6040518060400160405280600581526020017f56436f696e0000000000000000000000000000000000000000000000000000008152506040518060400160405280600581526020017f56434f494e0000000000000000000000000000000000000000000000000000008152508160039081620000b491906200063e565b508060049081620000c691906200063e565b505050620000e9620000dd6200011760201b60201c565b6200011f60201b60201c565b6200011033670de0b6b3a76400008362000104919062000754565b620001e560201b60201c565b506200088b565b600033905090565b6000600560009054906101000a900473ffffffffffffffffffffffffffffffffffffffff16905081600560006101000a81548173ffffffffffffffffffffffffffffffffffffffff021916908373ffffffffffffffffffffffffffffffffffffffff1602179055508173ffffffffffffffffffffffffffffffffffffffff168173ffffffffffffffffffffffffffffffffffffffff167f8be0079c531659141344cd1fd0a4f28419497f9722a3daafe3b4186f6b6457e060405160405180910390a35050565b600073ffffffffffffffffffffffffffffffffffffffff168273ffffffffffffffffffffffffffffffffffffffff160362000257576040517f08c379a00000000000000000000000000000000000000000000000000000000081526004016200024e9062000800565b60405180910390fd5b6200026b600083836200035260201b60201c565b80600260008282546200027f919062000822565b92505081905550806000808473ffffffffffffffffffffffffffffffffffffffff1673ffffffffffffffffffffffffffffffffffffffff168152602001908152602001600020600082825401925050819055508173ffffffffffffffffffffffffffffffffffffffff16600073ffffffffffffffffffffffffffffffffffffffff167fddf252ad1be2c89b69c2b068fc378daa952ba7f163c4a11628f55a4df523b3ef836040516200033291906200086e565b60405180910390a36200034e600083836200035760201b60201c565b5050565b505050565b505050565b600080fd5b6000819050919050565b620003768162000361565b81146200038257600080fd5b50565b60008151905062000396816200036b565b92915050565b600060208284031215620003b557620003b46200035c565b5b6000620003c58482850162000385565b91505092915050565b600081519050919050565b7f4e487b7100000000000000000000000000000000000000000000000000000000600052604160045260246000fd5b7f4e487b7100000000000000000000000000000000000000000000000000000000600052602260045260246000fd5b600060028204905060018216806200045057607f821691505b60208210810362000466576200046562000408565b5b50919050565b60008190508160005260206000209050919050565b60006020601f8301049050919050565b600082821b905092915050565b600060088302620004d07fffffffffffffffffffffffffffffffffffffffffffffffffffffffffffffffff8262000491565b620004dc868362000491565b95508019841693508086168417925050509392505050565b6000819050919050565b60006200051f62000519620005138462000361565b620004f4565b62000361565b9050919050565b6000819050919050565b6200053b83620004fe565b620005536200054a8262000526565b8484546200049e565b825550505050565b600090565b6200056a6200055b565b6200057781848462000530565b505050565b5b818110156200059f576200059360008262000560565b6001810190506200057d565b5050565b601f821115620005ee57620005b8816200046c565b620005c38462000481565b81016020851015620005d3578190505b620005eb620005e28562000481565b8301826200057c565b50505b505050565b600082821c905092915050565b60006200061360001984600802620005f3565b1980831691505092915050565b60006200062e838362000600565b9150826002028217905092915050565b6200064982620003ce565b67ffffffffffffffff811115620006655762000664620003d9565b5b62000671825462000437565b6200067e828285620005a3565b600060209050601f831160018114620006b65760008415620006a1578287015190505b620006ad858262000620565b8655506200071d565b601f198416620006c6866200046c565b60005b82811015620006f057848901518255600182019150602085019450602081019050620006c9565b868310156200071057848901516200070c601f89168262000600565b8355505b6001600288020188555050505b505050505050565b7f4e487b7100000000000000000000000000000000000000000000000000000000600052601160045260246000fd5b6000620007618262000361565b91506200076e8362000361565b92508282026200077e8162000361565b9150828204841483151762000798576200079762000725565b5b5092915050565b600082825260208201905092915050565b7f45524332303a206d696e7420746f20746865207a65726f206164647265737300600082015250565b6000620007e8601f836200079f565b9150620007f582620007b0565b602082019050919050565b600060208201905081810360008301526200081b81620007d9565b9050919050565b60006200082f8262000361565b91506200083c8362000361565b925082820190508082111562000857576200085662000725565b5b92915050565b620008688162000361565b82525050565b60006020820190506200088560008301846200085d565b92915050565b611981806200089b6000396000f3fe608060405234801561001057600080fd5b50600436106101005760003560e01c8063715018a611610097578063a457c2d711610066578063a457c2d71461029d578063a9059cbb146102cd578063dd62ed3e146102fd578063f2fde38b1461032d57610100565b8063715018a61461023b57806379cc6790146102455780638da5cb5b1461026157806395d89b411461027f57610100565b8063313ce567116100d3578063313ce567146101a157806339509351146101bf57806342966c68146101ef57806370a082311461020b57610100565b806306fdde0314610105578063095ea7b31461012357806318160ddd1461015357806323b872dd14610171575b600080fd5b61010d610349565b60405161011a9190610fe5565b60405180910390f35b61013d600480360381019061013891906110a0565b6103db565b60405161014a91906110fb565b60405180910390f35b61015b6103fe565b6040516101689190611125565b60405180910390f35b61018b60048036038101906101869190611140565b610408565b60405161019891906110fb565b60405180910390f35b6101a9610437565b6040516101b691906111af565b60405180910390f35b6101d960048036038101906101d491906110a0565b610440565b6040516101e691906110fb565b60405180910390f35b610209600480360381019061020491906111ca565b610477565b005b610225600480360381019061022091906111f7565b61048b565b6040516102329190611125565b60405180910390f35b6102436104d3565b005b61025f600480360381019061025a91906110a0565b6104e7565b005b610269610507565b6040516102769190611233565b60405180910390f35b610287610531565b6040516102949190610fe5565b60405180910390f35b6102b760048036038101906102b291906110a0565b6105c3565b6040516102c491906110fb565b60405180910390f35b6102e760048036038101906102e291906110a0565b61063a565b6040516102f491906110fb565b60405180910390f35b6103176004803603810190610312919061124e565b61065d565b6040516103249190611125565b60405180910390f35b610347600480360381019061034291906111f7565b6106e4565b005b606060038054610358906112bd565b80601f0160208091040260200160405190810160405280929190818152602001828054610384906112bd565b80156103d15780601f106103a6576101008083540402835291602001916103d1565b820191906000526020600020905b8154815290600101906020018083116103b457829003601f168201915b5050505050905090565b6000806103e6610767565b90506103f381858561076f565b600191505092915050565b6000600254905090565b600080610413610767565b9050610420858285610938565b61042b8585856109c4565b60019150509392505050565b60006012905090565b60008061044b610767565b905061046c81858561045d858961065d565b610467919061131d565b61076f565b600191505092915050565b610488610482610767565b82610c3a565b50565b60008060008373ffffffffffffffffffffffffffffffffffffffff1673ffffffffffffffffffffffffffffffffffffffff168152602001908152602001600020549050919050565b6104db610e07565b6104e56000610e85565b565b6104f9826104f3610767565b83610938565b6105038282610c3a565b5050565b6000600560009054906101000a900473ffffffffffffffffffffffffffffffffffffffff16905090565b606060048054610540906112bd565b80601f016020809104026020016040519081016040528092919081815260200182805461056c906112bd565b80156105b95780601f1061058e576101008083540402835291602001916105b9565b820191906000526020600020905b81548152906001019060200180831161059c57829003601f168201915b5050505050905090565b6000806105ce610767565b905060006105dc828661065d565b905083811015610621576040517f08c379a0000000000000000000000000000000000000000000000000000000008152600401610618906113c3565b60405180910390fd5b61062e828686840361076f565b60019250505092915050565b600080610645610767565b90506106528185856109c4565b600191505092915050565b6000600160008473ffffffffffffffffffffffffffffffffffffffff1673ffffffffffffffffffffffffffffffffffffffff16815260200190815260200160002060008373ffffffffffffffffffffffffffffffffffffffff1673ffffffffffffffffffffffffffffffffffffffff16815260200190815260200160002054905092915050565b6106ec610e07565b600073ffffffffffffffffffffffffffffffffffffffff168173ffffffffffffffffffffffffffffffffffffffff160361075b576040517f08c379a000000000000000000000000000000000000000000000000000000000815260040161075290611455565b60405180910390fd5b61076481610e85565b50565b600033905090565b600073ffffffffffffffffffffffffffffffffffffffff168373ffffffffffffffffffffffffffffffffffffffff16036107de576040517f08c379a00000000000000000000000000000000000000000000000000000000081526004016107d5906114e7565b60405180910390fd5b600073ffffffffffffffffffffffffffffffffffffffff168273ffffffffffffffffffffffffffffffffffffffff160361084d576040517f08c379a000000000000000000000000000000000000000000000000000000000815260040161084490611579565b60405180910390fd5b80600160008573ffffffffffffffffffffffffffffffffffffffff1673ffffffffffffffffffffffffffffffffffffffff16815260200190815260200160002060008473ffffffffffffffffffffffffffffffffffffffff1673ffffffffffffffffffffffffffffffffffffffff168152602001908152602001600020819055508173ffffffffffffffffffffffffffffffffffffffff168373ffffffffffffffffffffffffffffffffffffffff167f8c5be1e5ebec7d5bd14f71427d1e84f3dd0314c0f7b2291e5b200ac8c7c3b9258360405161092b9190611125565b60405180910390a3505050565b6000610944848461065d565b90507fffffffffffffffffffffffffffffffffffffffffffffffffffffffffffffffff81146109be57818110156109b0576040517f08c379a00000000000000000000000000000000000000000000000000000000081526004016109a7906115e5565b60405180910390fd5b6109bd848484840361076f565b5b50505050565b600073ffffffffffffffffffffffffffffffffffffffff168373ffffffffffffffffffffffffffffffffffffffff1603610a33576040517f08c379a0000000000000000000000000000000000000000000000000000000008152600401610a2a90611677565b60405180910390fd5b600073ffffffffffffffffffffffffffffffffffffffff168273ffffffffffffffffffffffffffffffffffffffff1603610aa2576040517f08c379a0000000000000000000000000000000000000000000000000000000008152600401610a9990611709565b60405180910390fd5b610aad838383610f4b565b60008060008573ffffffffffffffffffffffffffffffffffffffff1673ffffffffffffffffffffffffffffffffffffffff16815260200190815260200160002054905081811015610b33576040517f08c379a0000000000000000000000000000000000000000000000000000000008152600401610b2a9061179b565b60405180910390fd5b8181036000808673ffffffffffffffffffffffffffffffffffffffff1673ffffffffffffffffffffffffffffffffffffffff16815260200190815260200160002081905550816000808573ffffffffffffffffffffffffffffffffffffffff1673ffffffffffffffffffffffffffffffffffffffff168152602001908152602001600020600082825401925050819055508273ffffffffffffffffffffffffffffffffffffffff168473ffffffffffffffffffffffffffffffffffffffff167fddf252ad1be2c89b69c2b068fc378daa952ba7f163c4a11628f55a4df523b3ef84604051610c219190611125565b60405180910390a3610c34848484610f50565b50505050565b600073ffffffffffffffffffffffffffffffffffffffff168273ffffffffffffffffffffffffffffffffffffffff1603610ca9576040517f08c379a0000000000000000000000000000000000000000000000000000000008152600401610ca09061182d565b60405180910390fd5b610cb582600083610f4b565b60008060008473ffffffffffffffffffffffffffffffffffffffff1673ffffffffffffffffffffffffffffffffffffffff16815260200190815260200160002054905081811015610d3b576040517f08c379a0000000000000000000000000000000000000000000000000000000008152600401610d32906118bf565b60405180910390fd5b8181036000808573ffffffffffffffffffffffffffffffffffffffff1673ffffffffffffffffffffffffffffffffffffffff1681526020019081526020016000208190555081600260008282540392505081905550600073ffffffffffffffffffffffffffffffffffffffff168373ffffffffffffffffffffffffffffffffffffffff167fddf252ad1be2c89b69c2b068fc378daa952ba7f163c4a11628f55a4df523b3ef84604051610dee9190611125565b60405180910390a3610e0283600084610f50565b505050565b610e0f610767565b73ffffffffffffffffffffffffffffffffffffffff16610e2d610507565b73ffffffffffffffffffffffffffffffffffffffff1614610e83576040517f08c379a0000000000000000000000000000000000000000000000000000000008152600401610e7a9061192b565b60405180910390fd5b565b6000600560009054906101000a900473ffffffffffffffffffffffffffffffffffffffff16905081600560006101000a81548173ffffffffffffffffffffffffffffffffffffffff021916908373ffffffffffffffffffffffffffffffffffffffff1602179055508173ffffffffffffffffffffffffffffffffffffffff168173ffffffffffffffffffffffffffffffffffffffff167f8be0079c531659141344cd1fd0a4f28419497f9722a3daafe3b4186f6b6457e060405160405180910390a35050565b505050565b505050565b600081519050919050565b600082825260208201905092915050565b60005b83811015610f8f578082015181840152602081019050610f74565b60008484015250505050565b6000601f19601f8301169050919050565b6000610fb782610f55565b610fc18185610f60565b9350610fd1818560208601610f71565b610fda81610f9b565b840191505092915050565b60006020820190508181036000830152610fff8184610fac565b905092915050565b600080fd5b600073ffffffffffffffffffffffffffffffffffffffff82169050919050565b60006110378261100c565b9050919050565b6110478161102c565b811461105257600080fd5b50565b6000813590506110648161103e565b92915050565b6000819050919050565b61107d8161106a565b811461108857600080fd5b50565b60008135905061109a81611074565b92915050565b600080604083850312156110b7576110b6611007565b5b60006110c585828601611055565b92505060206110d68582860161108b565b9150509250929050565b60008115159050919050565b6110f5816110e0565b82525050565b600060208201905061111060008301846110ec565b92915050565b61111f8161106a565b82525050565b600060208201905061113a6000830184611116565b92915050565b60008060006060848603121561115957611158611007565b5b600061116786828701611055565b935050602061117886828701611055565b92505060406111898682870161108b565b9150509250925092565b600060ff82169050919050565b6111a981611193565b82525050565b60006020820190506111c460008301846111a0565b92915050565b6000602082840312156111e0576111df611007565b5b60006111ee8482850161108b565b91505092915050565b60006020828403121561120d5761120c611007565b5b600061121b84828501611055565b91505092915050565b61122d8161102c565b82525050565b60006020820190506112486000830184611224565b92915050565b6000806040838503121561126557611264611007565b5b600061127385828601611055565b925050602061128485828601611055565b9150509250929050565b7f4e487b7100000000000000000000000000000000000000000000000000000000600052602260045260246000fd5b600060028204905060018216806112d557607f821691505b6020821081036112e8576112e761128e565b5b50919050565b7f4e487b7100000000000000000000000000000000000000000000000000000000600052601160045260246000fd5b60006113288261106a565b91506113338361106a565b925082820190508082111561134b5761134a6112ee565b5b92915050565b7f45524332303a2064656372656173656420616c6c6f77616e63652062656c6f7760008201527f207a65726f000000000000000000000000000000000000000000000000000000602082015250565b60006113ad602583610f60565b91506113b882611351565b604082019050919050565b600060208201905081810360008301526113dc816113a0565b9050919050565b7f4f776e61626c653a206e6577206f776e657220697320746865207a65726f206160008201527f6464726573730000000000000000000000000000000000000000000000000000602082015250565b600061143f602683610f60565b915061144a826113e3565b604082019050919050565b6000602082019050818103600083015261146e81611432565b9050919050565b7f45524332303a20617070726f76652066726f6d20746865207a65726f2061646460008201527f7265737300000000000000000000000000000000000000000000000000000000602082015250565b60006114d1602483610f60565b91506114dc82611475565b604082019050919050565b60006020820190508181036000830152611500816114c4565b9050919050565b7f45524332303a20617070726f766520746f20746865207a65726f20616464726560008201527f7373000000000000000000000000000000000000000000000000000000000000602082015250565b6000611563602283610f60565b915061156e82611507565b604082019050919050565b6000602082019050818103600083015261159281611556565b9050919050565b7f45524332303a20696e73756666696369656e7420616c6c6f77616e6365000000600082015250565b60006115cf601d83610f60565b91506115da82611599565b602082019050919050565b600060208201905081810360008301526115fe816115c2565b9050919050565b7f45524332303a207472616e736665722066726f6d20746865207a65726f20616460008201527f6472657373000000000000000000000000000000000000000000000000000000602082015250565b6000611661602583610f60565b915061166c82611605565b604082019050919050565b6000602082019050818103600083015261169081611654565b9050919050565b7f45524332303a207472616e7366657220746f20746865207a65726f206164647260008201527f6573730000000000000000000000000000000000000000000000000000000000602082015250565b60006116f3602383610f60565b91506116fe82611697565b604082019050919050565b60006020820190508181036000830152611722816116e6565b9050919050565b7f45524332303a207472616e7366657220616d6f756e742065786365656473206260008201527f616c616e63650000000000000000000000000000000000000000000000000000602082015250565b6000611785602683610f60565b915061179082611729565b604082019050919050565b600060208201905081810360008301526117b481611778565b9050919050565b7f45524332303a206275726e2066726f6d20746865207a65726f2061646472657360008201527f7300000000000000000000000000000000000000000000000000000000000000602082015250565b6000611817602183610f60565b9150611822826117bb565b604082019050919050565b600060208201905081810360008301526118468161180a565b9050919050565b7f45524332303a206275726e20616d6f756e7420657863656564732062616c616e60008201527f6365000000000000000000000000000000000000000000000000000000000000602082015250565b60006118a9602283610f60565b91506118b48261184d565b604082019050919050565b600060208201905081810360008301526118d88161189c565b9050919050565b7f4f776e61626c653a2063616c6c6572206973206e6f7420746865206f776e6572600082015250565b6000611915602083610f60565b9150611920826118df565b602082019050919050565b6000602082019050818103600083015261194481611908565b905091905056fea2646970667358221220a05613db8afc7ffc4c8a048521b0ba99ea795a0f07a2f02bf994bbcb032a92f564736f6c63430008130033",
  "linkReferences": {},
  "deployedLinkReferences": {}
}